{
  "_format": "hh-sol-artifact-1",
  "contractName": "KSCStablecoin",
  "sourceName": "contracts/KSCStablecoin.sol",
  "abi": [
    {
      "inputs": [],
      "stateMutability": "nonpayable",
      "type": "constructor"
    },
    {
      "anonymous": false,
      "inputs": [
        {
          "indexed": true,
          "internalType": "address",
          "name": "owner",
          "type": "address"
        },
        {
          "indexed": true,
          "internalType": "address",
          "name": "spender",
          "type": "address"
        },
        {
          "indexed": false,
          "internalType": "uint256",
          "name": "value",
          "type": "uint256"
        }
      ],
      "name": "Approval",
      "type": "event"
    },
    {
      "anonymous": false,
      "inputs": [
        {
          "indexed": true,
          "internalType": "address",
          "name": "by",
          "type": "address"
        },
        {
          "indexed": false,
          "internalType": "uint256",
          "name": "timestamp",
          "type": "uint256"
        }
      ],
      "name": "EmergencyPaused",
      "type": "event"
    },
    {
      "anonymous": false,
      "inputs": [
        {
          "indexed": true,
          "internalType": "address",
          "name": "by",
          "type": "address"
        },
        {
          "indexed": false,
          "internalType": "uint256",
          "name": "timestamp",
          "type": "uint256"
        }
      ],
      "name": "EmergencyUnpaused",
      "type": "event"
    },
    {
      "anonymous": false,
      "inputs": [
        {
          "indexed": true,
          "internalType": "address",
          "name": "from",
          "type": "address"
        },
        {
          "indexed": false,
          "internalType": "uint256",
          "name": "amount",
          "type": "uint256"
        },
        {
          "indexed": false,
          "internalType": "uint256",
          "name": "timestamp",
          "type": "uint256"
        }
      ],
      "name": "KSCBurned",
      "type": "event"
    },
    {
      "anonymous": false,
      "inputs": [
        {
          "indexed": true,
          "internalType": "address",
          "name": "to",
          "type": "address"
        },
        {
          "indexed": false,
          "internalType": "uint256",
          "name": "amount",
          "type": "uint256"
        },
        {
          "indexed": false,
          "internalType": "uint256",
          "name": "timestamp",
          "type": "uint256"
        }
      ],
      "name": "KSCMinted",
      "type": "event"
    },
    {
      "anonymous": false,
      "inputs": [
        {
          "indexed": true,
          "internalType": "address",
          "name": "previousOwner",
          "type": "address"
        },
        {
          "indexed": true,
          "internalType": "address",
          "name": "newOwner",
          "type": "address"
        }
      ],
      "name": "OwnershipTransferred",
      "type": "event"
    },
    {
      "anonymous": false,
      "inputs": [
        {
          "indexed": false,
          "internalType": "address",
          "name": "account",
          "type": "address"
        }
      ],
      "name": "Paused",
      "type": "event"
    },
    {
      "anonymous": false,
      "inputs": [
        {
          "indexed": true,
          "internalType": "address",
          "name": "from",
          "type": "address"
        },
        {
          "indexed": true,
          "internalType": "address",
          "name": "to",
          "type": "address"
        },
        {
          "indexed": false,
          "internalType": "uint256",
          "name": "value",
          "type": "uint256"
        }
      ],
      "name": "Transfer",
      "type": "event"
    },
    {
      "anonymous": false,
      "inputs": [
        {
          "indexed": false,
          "internalType": "address",
          "name": "account",
          "type": "address"
        }
      ],
      "name": "Unpaused",
      "type": "event"
    },
    {
      "inputs": [
        {
          "internalType": "address",
          "name": "owner",
          "type": "address"
        },
        {
          "internalType": "address",
          "name": "spender",
          "type": "address"
        }
      ],
      "name": "allowance",
      "outputs": [
        {
          "internalType": "uint256",
          "name": "",
          "type": "uint256"
        }
      ],
      "stateMutability": "view",
      "type": "function"
    },
    {
      "inputs": [
        {
          "internalType": "address",
          "name": "spender",
          "type": "address"
        },
        {
          "internalType": "uint256",
          "name": "amount",
          "type": "uint256"
        }
      ],
      "name": "approve",
      "outputs": [
        {
          "internalType": "bool",
          "name": "",
          "type": "bool"
        }
      ],
      "stateMutability": "nonpayable",
      "type": "function"
    },
    {
      "inputs": [
        {
          "internalType": "address",
          "name": "account",
          "type": "address"
        }
      ],
      "name": "balanceOf",
      "outputs": [
        {
          "internalType": "uint256",
          "name": "",
          "type": "uint256"
        }
      ],
      "stateMutability": "view",
      "type": "function"
    },
    {
      "inputs": [
        {
          "internalType": "address",
          "name": "from",
          "type": "address"
        },
        {
          "internalType": "uint256",
          "name": "amount",
          "type": "uint256"
        }
      ],
      "name": "burn",
      "outputs": [],
      "stateMutability": "nonpayable",
      "type": "function"
    },
    {
      "inputs": [
        {
          "internalType": "uint256",
          "name": "amount",
          "type": "uint256"
        }
      ],
      "name": "burnSelf",
      "outputs": [],
      "stateMutability": "nonpayable",
      "type": "function"
    },
    {
      "inputs": [],
      "name": "circulatingSupply",
      "outputs": [
        {
          "internalType": "uint256",
          "name": "",
          "type": "uint256"
        }
      ],
      "stateMutability": "view",
      "type": "function"
    },
    {
      "inputs": [],
      "name": "decimals",
      "outputs": [
        {
          "internalType": "uint8",
          "name": "",
          "type": "uint8"
        }
      ],
      "stateMutability": "view",
      "type": "function"
    },
    {
      "inputs": [
        {
          "internalType": "address",
          "name": "spender",
          "type": "address"
        },
        {
          "internalType": "uint256",
          "name": "subtractedValue",
          "type": "uint256"
        }
      ],
      "name": "decreaseAllowance",
      "outputs": [
        {
          "internalType": "bool",
          "name": "",
          "type": "bool"
        }
      ],
      "stateMutability": "nonpayable",
      "type": "function"
    },
    {
      "inputs": [],
      "name": "emergencyPause",
      "outputs": [],
      "stateMutability": "nonpayable",
      "type": "function"
    },
    {
      "inputs": [],
      "name": "emergencyUnpause",
      "outputs": [],
      "stateMutability": "nonpayable",
      "type": "function"
    },
    {
      "inputs": [],
      "name": "getContractInfo",
      "outputs": [
        {
          "internalType": "string",
          "name": "tokenName",
          "type": "string"
        },
        {
          "internalType": "string",
          "name": "tokenSymbol",
          "type": "string"
        },
        {
          "internalType": "uint8",
          "name": "tokenDecimals",
          "type": "uint8"
        },
        {
          "internalType": "uint256",
          "name": "currentTotalSupply",
          "type": "uint256"
        },
        {
          "internalType": "uint256",
          "name": "currentTotalMinted",
          "type": "uint256"
        },
        {
          "internalType": "uint256",
          "name": "currentTotalBurned",
          "type": "uint256"
        },
        {
          "internalType": "bool",
          "name": "isPaused",
          "type": "bool"
        }
      ],
      "stateMutability": "view",
      "type": "function"
    },
    {
      "inputs": [],
      "name": "getTotalBurned",
      "outputs": [
        {
          "internalType": "uint256",
          "name": "",
          "type": "uint256"
        }
      ],
      "stateMutability": "view",
      "type": "function"
    },
    {
      "inputs": [],
      "name": "getTotalMinted",
      "outputs": [
        {
          "internalType": "uint256",
          "name": "",
          "type": "uint256"
        }
      ],
      "stateMutability": "view",
      "type": "function"
    },
    {
      "inputs": [
        {
          "internalType": "address",
          "name": "spender",
          "type": "address"
        },
        {
          "internalType": "uint256",
          "name": "addedValue",
          "type": "uint256"
        }
      ],
      "name": "increaseAllowance",
      "outputs": [
        {
          "internalType": "bool",
          "name": "",
          "type": "bool"
        }
      ],
      "stateMutability": "nonpayable",
      "type": "function"
    },
    {
      "inputs": [
        {
          "internalType": "address",
          "name": "to",
          "type": "address"
        },
        {
          "internalType": "uint256",
          "name": "amount",
          "type": "uint256"
        }
      ],
      "name": "mint",
      "outputs": [],
      "stateMutability": "nonpayable",
      "type": "function"
    },
    {
      "inputs": [],
      "name": "name",
      "outputs": [
        {
          "internalType": "string",
          "name": "",
          "type": "string"
        }
      ],
      "stateMutability": "view",
      "type": "function"
    },
    {
      "inputs": [],
      "name": "owner",
      "outputs": [
        {
          "internalType": "address",
          "name": "",
          "type": "address"
        }
      ],
      "stateMutability": "view",
      "type": "function"
    },
    {
      "inputs": [],
      "name": "paused",
      "outputs": [
        {
          "internalType": "bool",
          "name": "",
          "type": "bool"
        }
      ],
      "stateMutability": "view",
      "type": "function"
    },
    {
      "inputs": [],
      "name": "renounceOwnership",
      "outputs": [],
      "stateMutability": "nonpayable",
      "type": "function"
    },
    {
      "inputs": [],
      "name": "symbol",
      "outputs": [
        {
          "internalType": "string",
          "name": "",
          "type": "string"
        }
      ],
      "stateMutability": "view",
      "type": "function"
    },
    {
      "inputs": [],
      "name": "totalBurned",
      "outputs": [
        {
          "internalType": "uint256",
          "name": "",
          "type": "uint256"
        }
      ],
      "stateMutability": "view",
      "type": "function"
    },
    {
      "inputs": [],
      "name": "totalMinted",
      "outputs": [
        {
          "internalType": "uint256",
          "name": "",
          "type": "uint256"
        }
      ],
      "stateMutability": "view",
      "type": "function"
    },
    {
      "inputs": [],
      "name": "totalSupply",
      "outputs": [
        {
          "internalType": "uint256",
          "name": "",
          "type": "uint256"
        }
      ],
      "stateMutability": "view",
      "type": "function"
    },
    {
      "inputs": [
        {
          "internalType": "address",
          "name": "to",
          "type": "address"
        },
        {
          "internalType": "uint256",
          "name": "amount",
          "type": "uint256"
        }
      ],
      "name": "transfer",
      "outputs": [
        {
          "internalType": "bool",
          "name": "",
          "type": "bool"
        }
      ],
      "stateMutability": "nonpayable",
      "type": "function"
    },
    {
      "inputs": [
        {
          "internalType": "address",
          "name": "from",
          "type": "address"
        },
        {
          "internalType": "address",
          "name": "to",
          "type": "address"
        },
        {
          "internalType": "uint256",
          "name": "amount",
          "type": "uint256"
        }
      ],
      "name": "transferFrom",
      "outputs": [
        {
          "internalType": "bool",
          "name": "",
          "type": "bool"
        }
      ],
      "stateMutability": "nonpayable",
      "type": "function"
    },
    {
      "inputs": [
        {
          "internalType": "address",
          "name": "newOwner",
          "type": "address"
        }
      ],
      "name": "transferOwnership",
      "outputs": [],
      "stateMutability": "nonpayable",
      "type": "function"
    }
  ],
  "bytecode": "0x60806040523480156200001157600080fd5b506040518060400160405280601181526020017025b7b932b09029ba30b136329021b7b4b760791b815250604051806040016040528060038152602001624b534360e81b8152508160039081620000699190620001b2565b506004620000788282620001b2565b505050620000956200008f620000b760201b60201c565b620000bb565b6005805460ff60a01b191690556001600655600060078190556008556200027e565b3390565b600580546001600160a01b038381166001600160a01b0319831681179093556040519116919082907f8be0079c531659141344cd1fd0a4f28419497f9722a3daafe3b4186f6b6457e090600090a35050565b634e487b7160e01b600052604160045260246000fd5b600181811c908216806200013857607f821691505b6020821081036200015957634e487b7160e01b600052602260045260246000fd5b50919050565b601f821115620001ad57600081815260208120601f850160051c81016020861015620001885750805b601f850160051c820191505b81811015620001a95782815560010162000194565b5050505b505050565b81516001600160401b03811115620001ce57620001ce6200010d565b620001e681620001df845462000123565b846200015f565b602080601f8311600181146200021e5760008415620002055750858301515b600019600386901b1c1916600185901b178555620001a9565b600085815260208120601f198616915b828110156200024f578886015182559484019460019091019084016200022e565b50858210156200026e5787850151600019600388901b60f8161c191681555b5050505050600190811b01905550565b61141e806200028e6000396000f3fe608060405234801561001057600080fd5b506004361061018e5760003560e01c80637cc1f867116100de578063a457c2d711610097578063b8b12a1e11610071578063b8b12a1e1461031b578063d89135cd1461032e578063dd62ed3e14610337578063f2fde38b1461034a57600080fd5b8063a457c2d7146102ed578063a9059cbb14610300578063b55cd04b1461031357600080fd5b80637cc1f8671461028b5780638da5cb5b146102a65780639358928b146102c157806395d89b41146102c95780639dc29fac146102d1578063a2309ff8146102e457600080fd5b8063395093511161014b57806351858e271161012557806351858e27146102405780635c975abb1461024857806370a082311461025a578063715018a61461028357600080fd5b8063395093511461021057806340c10f19146102235780634a4e3bd51461023857600080fd5b806306fdde0314610193578063095ea7b3146101b15780630ca1c5c9146101d457806318160ddd146101e657806323b872dd146101ee578063313ce56714610201575b600080fd5b61019b61035d565b6040516101a891906111b2565b60405180910390f35b6101c46101bf3660046111e8565b6103ef565b60405190151581526020016101a8565b6007545b6040519081526020016101a8565b6002546101d8565b6101c46101fc366004611212565b610409565b604051601281526020016101a8565b6101c461021e3660046111e8565b61042d565b6102366102313660046111e8565b61044f565b005b610236610555565b61023661059d565b600554600160a01b900460ff166101c4565b6101d861026836600461124e565b6001600160a01b031660009081526020819052604090205490565b6102366105df565b6102936105f3565b6040516101a89796959493929190611269565b6005546040516001600160a01b0390911681526020016101a8565b6101d861063c565b61019b61064c565b6102366102df3660046111e8565b61065b565b6101d860075481565b6101c46102fb3660046111e8565b610793565b6101c461030e3660046111e8565b61080e565b6008546101d8565b6102366103293660046112be565b61081c565b6101d860085481565b6101d86103453660046112d7565b6108e3565b61023661035836600461124e565b61090e565b60606003805461036c9061130a565b80601f01602080910402602001604051908101604052809291908181526020018280546103989061130a565b80156103e55780601f106103ba576101008083540402835291602001916103e5565b820191906000526020600020905b8154815290600101906020018083116103c857829003601f168201915b5050505050905090565b6000336103fd818585610984565b60019150505b92915050565b600033610417858285610aa9565b610422858585610b23565b506001949350505050565b6000336103fd81858561044083836108e3565b61044a9190611344565b610984565b610457610cd2565b61045f610d2c565b610467610d79565b6001600160a01b0382166104c25760405162461bcd60e51b815260206004820181905260248201527f4b53433a2043616e6e6f74206d696e7420746f207a65726f206164647265737360448201526064015b60405180910390fd5b600081116104e25760405162461bcd60e51b81526004016104b990611365565b6104ec8282610dd2565b80600760008282546104fe9190611344565b9091555050604080518281524260208201526001600160a01b038416917fcbf06197a70b84410c82deacf177e172af08fdf1a0550d9be7fa784f939fef2b91015b60405180910390a26105516001600655565b5050565b61055d610cd2565b610565610e9d565b60405142815233907fdacac23d353cc4fe05be85350ed1e8227ed9edf2323b7cb5aad3174e6a9ce1d6906020015b60405180910390a2565b6105a5610cd2565b6105ad610ef2565b60405142815233907f2e31b3b12b9bb0e82c32f27df5f234fabc95a374f54fd287a7132878d5dc9fc390602001610593565b6105e7610cd2565b6105f16000610f35565b565b606080600080600080600061060661035d565b61060e61064c565b6012600254600754600854600554600160a01b900460ff16959d949c50929a50909850965094509092509050565b600061064760025490565b905090565b60606004805461036c9061130a565b610663610cd2565b61066b610d2c565b610673610d79565b6001600160a01b0382166106d45760405162461bcd60e51b815260206004820152602260248201527f4b53433a2043616e6e6f74206275726e2066726f6d207a65726f206164647265604482015261737360f01b60648201526084016104b9565b600081116106f45760405162461bcd60e51b81526004016104b990611365565b80610714836001600160a01b031660009081526020819052604090205490565b10156107325760405162461bcd60e51b81526004016104b9906113a7565b61073c8282610f87565b806008600082825461074e9190611344565b9091555050604080518281524260208201526001600160a01b038416917fefd0e43a0d67dfabe8ce3c7e572fccc55d12c727eaab3e84b829227900165576910161053f565b600033816107a182866108e3565b9050838110156108015760405162461bcd60e51b815260206004820152602560248201527f45524332303a2064656372656173656420616c6c6f77616e63652062656c6f77604482015264207a65726f60d81b60648201526084016104b9565b6104228286868403610984565b6000336103fd818585610b23565b610824610d2c565b61082c610d79565b6000811161084c5760405162461bcd60e51b81526004016104b990611365565b3360009081526020819052604090205481111561087b5760405162461bcd60e51b81526004016104b9906113a7565b6108853382610f87565b80600860008282546108979190611344565b90915550506040805182815242602082015233917fefd0e43a0d67dfabe8ce3c7e572fccc55d12c727eaab3e84b829227900165576910160405180910390a26108e06001600655565b50565b6001600160a01b03918216600090815260016020908152604080832093909416825291909152205490565b610916610cd2565b6001600160a01b03811661097b5760405162461bcd60e51b815260206004820152602660248201527f4f776e61626c653a206e6577206f776e657220697320746865207a65726f206160448201526564647265737360d01b60648201526084016104b9565b6108e081610f35565b6001600160a01b0383166109e65760405162461bcd60e51b8152602060048201526024808201527f45524332303a20617070726f76652066726f6d20746865207a65726f206164646044820152637265737360e01b60648201526084016104b9565b6001600160a01b038216610a475760405162461bcd60e51b815260206004820152602260248201527f45524332303a20617070726f766520746f20746865207a65726f206164647265604482015261737360f01b60648201526084016104b9565b6001600160a01b0383811660008181526001602090815260408083209487168084529482529182902085905590518481527f8c5be1e5ebec7d5bd14f71427d1e84f3dd0314c0f7b2291e5b200ac8c7c3b92591015b60405180910390a3505050565b6000610ab584846108e3565b90506000198114610b1d5781811015610b105760405162461bcd60e51b815260206004820152601d60248201527f45524332303a20696e73756666696369656e7420616c6c6f77616e636500000060448201526064016104b9565b610b1d8484848403610984565b50505050565b6001600160a01b038316610b875760405162461bcd60e51b815260206004820152602560248201527f45524332303a207472616e736665722066726f6d20746865207a65726f206164604482015264647265737360d81b60648201526084016104b9565b6001600160a01b038216610be95760405162461bcd60e51b815260206004820152602360248201527f45524332303a207472616e7366657220746f20746865207a65726f206164647260448201526265737360e81b60648201526084016104b9565b610bf48383836110c2565b6001600160a01b03831660009081526020819052604090205481811015610c6c5760405162461bcd60e51b815260206004820152602660248201527f45524332303a207472616e7366657220616d6f756e7420657863656564732062604482015265616c616e636560d01b60648201526084016104b9565b6001600160a01b03848116600081815260208181526040808320878703905593871680835291849020805487019055925185815290927fddf252ad1be2c89b69c2b068fc378daa952ba7f163c4a11628f55a4df523b3ef910160405180910390a3610b1d565b6005546001600160a01b031633146105f15760405162461bcd60e51b815260206004820181905260248201527f4f776e61626c653a2063616c6c6572206973206e6f7420746865206f776e657260448201526064016104b9565b600554600160a01b900460ff16156105f15760405162461bcd60e51b815260206004820152601060248201526f14185d5cd8589b194e881c185d5cd95960821b60448201526064016104b9565b600260065403610dcb5760405162461bcd60e51b815260206004820152601f60248201527f5265656e7472616e637947756172643a207265656e7472616e742063616c6c0060448201526064016104b9565b6002600655565b6001600160a01b038216610e285760405162461bcd60e51b815260206004820152601f60248201527f45524332303a206d696e7420746f20746865207a65726f20616464726573730060448201526064016104b9565b610e34600083836110c2565b8060026000828254610e469190611344565b90915550506001600160a01b038216600081815260208181526040808320805486019055518481527fddf252ad1be2c89b69c2b068fc378daa952ba7f163c4a11628f55a4df523b3ef910160405180910390a35050565b610ea561111c565b6005805460ff60a01b191690557f5db9ee0a495bf2e6ff9c91a7834c1ba4fdd244a5e8aa4e537bd38aeae4b073aa335b6040516001600160a01b03909116815260200160405180910390a1565b610efa610d2c565b6005805460ff60a01b1916600160a01b1790557f62e78cea01bee320cd4e420270b5ea74000d11b0c9f74754ebdbfc544b05a258610ed53390565b600580546001600160a01b038381166001600160a01b0319831681179093556040519116919082907f8be0079c531659141344cd1fd0a4f28419497f9722a3daafe3b4186f6b6457e090600090a35050565b6001600160a01b038216610fe75760405162461bcd60e51b815260206004820152602160248201527f45524332303a206275726e2066726f6d20746865207a65726f206164647265736044820152607360f81b60648201526084016104b9565b610ff3826000836110c2565b6001600160a01b038216600090815260208190526040902054818110156110675760405162461bcd60e51b815260206004820152602260248201527f45524332303a206275726e20616d6f756e7420657863656564732062616c616e604482015261636560f01b60648201526084016104b9565b6001600160a01b0383166000818152602081815260408083208686039055600280548790039055518581529192917fddf252ad1be2c89b69c2b068fc378daa952ba7f163c4a11628f55a4df523b3ef9101610a9c565b505050565b600554600160a01b900460ff16156110bd5760405162461bcd60e51b815260206004820152601a60248201527f4b53433a20546f6b656e207472616e736665722070617573656400000000000060448201526064016104b9565b600554600160a01b900460ff166105f15760405162461bcd60e51b815260206004820152601460248201527314185d5cd8589b194e881b9bdd081c185d5cd95960621b60448201526064016104b9565b6000815180845260005b8181101561119257602081850181015186830182015201611176565b506000602082860101526020601f19601f83011685010191505092915050565b6020815260006111c5602083018461116c565b9392505050565b80356001600160a01b03811681146111e357600080fd5b919050565b600080604083850312156111fb57600080fd5b611204836111cc565b946020939093013593505050565b60008060006060848603121561122757600080fd5b611230846111cc565b925061123e602085016111cc565b9150604084013590509250925092565b60006020828403121561126057600080fd5b6111c5826111cc565b60e08152600061127c60e083018a61116c565b828103602084015261128e818a61116c565b60ff98909816604084015250506060810194909452608084019290925260a0830152151560c09091015292915050565b6000602082840312156112d057600080fd5b5035919050565b600080604083850312156112ea57600080fd5b6112f3836111cc565b9150611301602084016111cc565b90509250929050565b600181811c9082168061131e57607f821691505b60208210810361133e57634e487b7160e01b600052602260045260246000fd5b50919050565b8082018082111561040357634e487b7160e01b600052601160045260246000fd5b60208082526022908201527f4b53433a20416d6f756e74206d7573742062652067726561746572207468616e604082015261020360f41b606082015260800190565b60208082526021908201527f4b53433a20496e73756666696369656e742062616c616e636520746f206275726040820152603760f91b60608201526080019056fea26469706673582212208f5602059659e555a8f77eb54626d556101f76032b4f22dd5a63eb9357f55f6a64736f6c63430008140033",
  "linkReferences": {},
  "deployedLinkReferences": {}
}